:100000000C946D020C948A020C948A020C948A025D
:100010000C948A020C948A020C948A020C948A0230
:100020000C948A020C948A020C94291A0C94641A77
:100030000C948A020C948A020C948A020C948A0210
:100040000C948A020C948A020C948A020C948A0200
:100050000C94B7030C948A020C948A020C948A02C2
:100060000C948A020C948A020C948A020C948A02E0
:100070000C948A020C948A020C948A020C948A02D0
:100080000C948A020C948A020C948A020C948A02C0
:100090000C948A020C948A020C948A020C948A02B0
:1000A0000C948A020C948A020C948A02BE19BB1921
:1000B000B819B519B219AF19AC19A919A619A3190C
:1000C000A0199D199A199719941991198E198B19BC
:1000D0008819851982197F197C197919761973196C
:1000E00070196D196A196719641961195E195B191C
:1000F0005819551952194F194C19491946194319CC
:1001000040193D193A193719341931192E192B197B
:100110002819251922191F191C191919161913192B
:1001200010190D190A19071904190119FE180001EF
:10013000000062011200020000740143000300008D
:10014000B7010401030904BB011402030904D1012E
:100150001603030904E9010C0001C11201803601F4
:1001600081361201000202000010C0167A0400015C
:100170000102030109024300020100C03209040028
:100180000001020201000524001001052401010103
:10019000042402060524060001070582031000401E
:1001A00009040100020A00000007050302400000E4
:1001B0000705840240000004030904140359006F7A
:1001C000007500720020004E0061006D00650000A7
:1001D00000160355005300420020005300650072D2
:1001E00000690061006C0000000C03310032003334
:1001F000003400350000006E616E00696E6600001C
:100200000000000000005F00000007000700147FEE
:10021000147F14242A7F2A12231308646236495556
:1002200022500005030000001C2241000041221C56
:100230000014083E081408083E080800503000006A
:100240000808080808006060000020100804023E4A
:100250005149453E00427F4000426151494621419B
:10026000454B311814127F1027454545393C4A4902
:10027000493001710905033649494936064949297A
:100280001E003636000000563600000814224100D9
:1002900014141414140041221408020151090632E6
:1002A0004979413E7E1111117E7F494949363E41CF
:1002B0004141227F4141221C7F494949417F09092F
:1002C00009013E4149497A7F0808087F00417F4182
:1002D000002040413F017F081422417F40404040C0
:1002E0007F020C027F7F0408107F3E4141413E7F28
:1002F000090909063E4151215E7F091929464649EF
:1003000049493101017F01013F4040403F1F2040EA
:10031000201F3F4038403F631408146307087008EB
:10032000076151494543007F414100020408102004
:100330000041417F0004020102044040404040006F
:100340000102040020545454787F4844443838440F
:10035000444420384444487F3854545418087E0993
:1003600001020C5252523E7F0804047800447D4042
:10037000002040443D007F1028440000417F4000A1
:100380007C041804787C0804047838444444387C9D
:1003900014141408081414187C7C08040408485425
:1003A000545420043F4440203C4040207C1C2040CA
:1003B000201C3C4030403C44281028440C505050F5
:1003C0003C4464544C44000836410000007F000067
:1003D00000413608001008081008784641467800A9
:1003E000407A10F35A00A0724E18090010A5D4E804
:1003F0000000E87648170000E40B54020000CA9A97
:100400003B000000E1F505000080969800000040E8
:10041000420F000000A0860100000010270000002D
:1004200000E803000000006400000000000A000073
:100430000000000100000000002C76D888DC674F27
:100440000823DFC1DFAE59E1B1B796E5E3E453C657
:100450003AE651997696E8E6C28426EB898C9B624F
:10046000ED407C6FFCEFBC9C9F40F2BAA56FA5F4F9
:1004700090055A2AF75C936B6CF9676DC11BFCE021
:10048000E40D47FEF520E6B500D0ED902E03009474
:100490003577050080841E080000204E0A00000009
:1004A000C80C333333330F986E12831141EF8D2113
:1004B00014893BE65516CFFEE6DB18D1844B381B7A
:1004C000F77C1D901DA4BBE424203284725E22813F
:1004D00000C9F124ECA1E53D270011241FBECFEF98
:1004E000DAE0DEBFCDBF13E0A0E0B1E0EAE8FFE470
:1004F00002C005900D92AE31B107D9F716E0AEE11A
:10050000B3E001C01D92A532B107E1F70E94771157
:100510000C94C3270C94000080919A0390919B0344
:10052000A0919C03B0919D038093D9039093DA032B
:10053000A093DB03B093DC0380919E0390919F0313
:10054000A091A003B091A1038093DD039093DE03FB
:10055000A093DF03B093E0030895AF92BF92CF92D0
:10056000DF92EF92FF920F931F938091D8029091A8
:10057000D90201969093D9028093D802029709F08C
:10058000C9C01092D9021092D802E0900304F090F2
:1005900004040091050410910604C801B70120E08D
:1005A00030E040E051E40E940323882389F4609105
:1005B0000704709108048091090490910A0420E0D6
:1005C00030E040EC50E40E940323882309F4A2C0E9
:1005D00080914603909147038130910579F46091B1
:1005E0000704709108048091090490910A0420E0A6
:1005F00030E040E85FE30E948B2211C08230910519
:10060000B9F46091070470910804809109049091F5
:100610000A0420E030E040E85FE30E948C2260930F
:100620000704709308048093090490930A041EC081
:100630008330910549F4C801B70120E030E040E87B
:100640005FE30E948B220AC0049781F4C801B701BE
:1006500020E030E040E85FE30E948C2260930304D6
:10066000709304048093050490930604A0900704FB
:10067000B0900804C0900904D0900A04C601B501E6
:1006800020E030E040E251E40E940323882331F16E
:10069000E0900304F0900404009105041091060416
:1006A000C801B70120E030E040E050E00E940323A1
:1006B0008823A1F0C601B50120E030E048E352E410
:1006C0000E940323882351F0C801B70120E030E0E5
:1006D00044EA52E40E9403238823E1F480E090E09E
:1006E000A0E0B1E48093030490930404A093050474
:1006F000B093060480E090E0A0ECB0E4809307049F
:1007000090930804A0930904B0930A04109249033B
:10071000109248031F910F91FF90EF90DF90CF90C0
:10072000BF90AF9008952091660330916703409188
:10073000680350916903609184007091850080E0A6
:1007400090E0A90133272227620F731F841F951F92
:100750000E94A02320E030E040E854E40E94A92455
:1007600020E034E244EF5AE40E94072308951F92E8
:100770000F920FB60F9211248F939F93AF93BF9355
:100780008091660390916703A0916803B09169031B
:100790000196A11DB11D8093660390936703A093FA
:1007A0006803B0936903BF91AF919F918F910F90B0
:1007B0000FBE0F901F9018956F927F928F929F920D
:1007C000AF92BF92CF92DF92EF92FF920F931F935F
:1007D0000E94BB2564E470E00E940C250396AA27C2
:1007E00097FDA095BA2FBC01CD010E94A223609372
:1007F0008503709386038093870390938803A0906A
:100800008503B0908603C0908703D0908803E09062
:100810009A03F0909B0300919C0310919D03C601E5
:10082000B501A80197010E94032388238CF4C80115
:10083000B70120E030E040E851E40E948B229B01A8
:10084000AC01C601B5010E94A52418160CF4C0CF56
:10085000C601B501A80197010E94A524181684F4C9
:10086000C801B70120E030E040E851E40E948C224A
:100870009B01AC01C601B5010E94032387FDA8CFEF
:100880000E94BB2566E170E00E940C250B96AA270A
:1008900097FDA095BA2FBC01CD010E94A2236093C1
:1008A000890370938A0380938B0390938C036090E9
:1008B000890370908A0380908B0390908C03E09062
:1008C0009E03F0909F030091A0031091A103C40127
:1008D000B301A80197010E94032388238CF4C80167
:1008E000B70120E030E040E851E40E948B229B01F8
:1008F000AC01C401B3010E94A52418160CF4C0CFAA
:10090000C401B301A80197010E94A524181684F41C
:10091000C801B70120E030E040E851E40E948C2299
:100920009B01AC01C401B3010E94032387FDA8CF42
:10093000E0908503F090860300918703109188036F
:10094000C801B70120E030E040E051E40E948C2271
:100950006093700370937103809372039093730399
:10096000609274037092750380927603909277037D
:10097000C801B70120E030E040E850E40E948C223A
:100980005B016C016093AF037093B0038093B1037C
:100990009093B203C401B30120E030E040E050E4A2
:1009A0000E948C227B018C01CB01D8018093B30380
:1009B0009093B403A093B503B093B603C601B501F9
:1009C00020E030E040E450E40E948C226093EE038B
:1009D0007093EF038093F0039093F1039701A801C4
:1009E0002093F2033093F3034093F4035093F50301
:1009F00020E030E040E450E40E948C226093180430
:100A00007093190480931A0490931B04C701D801B2
:100A100080931C0490931D04A0931E04B0931F04A4
:100A20001F910F91FF90EF90DF90CF90BF90AF900C
:100A30009F908F907F906F9008952F923F924F924A
:100A40005F926F927F928F929F92AF92BF92CF925E
:100A5000DF92EF92FF920F931F9380912203909168
:100A60002303009749F08230910531F085309105DC
:100A700019F0079709F01BC2809134039091350358
:100A8000019709F014C26091C8037091C903809165
:100A9000CA039091CB0320E030E040E351E40E9490
:100AA0000323882361F480E090E0A0E4B1E4809324
:100AB000C8039093C903A093CA03B093CB0360917A
:100AC000C8037091C9038091CA039091CB0320E0C1
:100AD00030E048E252E40E940323882361F480E07E
:100AE00090E0A4E2B2E48093C8039093C903A0937A
:100AF000CA03B093CB036091C4037091C503809186
:100B0000C6039091C70320E030E040E85FE30E9415
:100B10000323882361F480E090E0A0E0B0E48093B8
:100B2000C4039093C503A093C603B093C703609119
:100B3000C4037091C5038091C6039091C70320E060
:100B400030E046E952E40E940323882361F480E008
:100B500090E0A4E9B2E48093C4039093C503A0930A
:100B6000C603B093C7036091360370913703809139
:100B700038039091390320913E0330913F03409117
:100B80004003509141030E948C223B014C01609331
:100B90003603709337038093380390933903609141
:100BA0003A0370913B0380913C0390913D03209167
:100BB00042033091430340914403509145030E9406
:100BC0008C221B012C0160933A0370933B038093AA
:100BD0003C0390933D03E090C403F090C503009163
:100BE000C6031091C703A0902A03B0902B03C090B6
:100BF0002C03D0902D03C801B701A60195010E94D6
:100C0000032387FD06C080915203909153030197FF
:100C100001F580915403909155030197D1F081E043
:100C200090E09093530380935203C401B30120E0FA
:100C300030E040E85FE30E94A52488230CF44DC017
:100C4000C801B70120E030E040E85FE30E948C2259
:100C50002CC0C801B701A60195010E94A524181651
:100C600034F080915403909155030197B1F5809130
:100C7000520390915303019781F181E090E09093AA
:100C8000550380935403C401B30120E030E040E8F1
:100C90005FE30E94A524882304F1C801B70120E086
:100CA00030E040E85FE30E948B226093C4037093BE
:100CB000C5038093C6039093C703C401B30120E02A
:100CC00030E040E85FE30E948B226093360370932C
:100CD00037038093380390933903E090C803F09072
:100CE000C9030091CA031091CB03A0902E03B090CA
:100CF0002F03C0903003D0903103C801B701A60183
:100D000095010E94032387FD06C0809156039091B0
:100D10005703019701F5809158039091590301976A
:100D2000D1F081E090E09093570380935603C20185
:100D3000B10120E030E040E85FE30E94A524882371
:100D40000CF44DC0C801B70120E030E040E85FE39B
:100D50000E948C222CC0C801B701A60195010E94F7
:100D6000A524181634F080915803909159030197E7
:100D7000B1F58091560390915703019781F181E07D
:100D800090E09093590380935803C201B10120E091
:100D900030E040E85FE30E94A524882304F1C80105
:100DA000B70120E030E040E85FE30E948B226093CF
:100DB000C8037093C9038093CA039093CB03C20105
:100DC000B10120E030E040E85FE30E948B226093B5
:100DD0003A0370933B0380933C0390933D03A090B0
:100DE000C803B090C903C090CA03D090CB03C6011A
:100DF000B50120E030E040E351E40E940323882362
:100E000031F1E090C403F090C5030091C603109146
:100E1000C703C801B70120E030E040E85FE30E946B
:100E200003238823A1F0C601B50120E030E048E2A9
:100E300052E40E940323882351F0C801B70120E047
:100E400030E046E952E40E940323882381F51092A2
:100E500035031092340300912403109125030E945E
:100E6000BB2598012E5F3F4F62E070E00E940C2589
:100E7000280F391F30933303209332032D3331056C
:100E800034F02C53304030933303209332031092CC
:100E90005303109252031092550310925403109270
:100EA00057031092560310925903109258031F9142
:100EB0000F91FF90EF90DF90CF90BF90AF909F90F9
:100EC0008F907F906F905F904F903F902F900895FC
:100ED000AF92BF92CF92DF92EF92FF920F931F9348
:100EE0000E94BB2568E470E00E940C250396AA27A7
:100EF00097FDA095BA2FBC01CD010E94A22360935B
:100F0000C4037093C5038093C6039093C703A09056
:100F1000C403B090C503C090C603D090C703E0904F
:100F20009A03F0909B0300919C0310919D03C601CE
:100F3000B501A80197010E94032388238CF4C801FE
:100F4000B70120E030E040E051E40E948B229B0199
:100F5000AC01C601B5010E94A52418160CF4C0CF3F
:100F6000C601B501A80197010E94A524181684F4B2
:100F7000C801B70120E030E040E051E40E948C223B
:100F80009B01AC01C601B5010E94032387FDA8CFD8
:100F90000E94BB2569E170E00E940C250C96AA27EF
:100FA00097FDA095BA2FBC01CD010E94A2236093AA
:100FB000C8037093C9038093CA039093CB03A09096
:100FC000C803B090C903C090CA03D090CB03E0908F
:100FD0009E03F0909F030091A0031091A103C6010E
:100FE000B501A80197010E94032388238CF4C8014E
:100FF000B70120E030E040E051E40E948B229B01E9
:10100000AC01C601B5010E94A52418160CF4C0CF8E
:10101000C601B501A80197010E94A524181684F401
:10102000C801B70120E030E040E051E40E948C228A
:101030009B01AC01C601B5010E94032387FDA8CF27
:101040001F910F91FF90EF90DF90CF90BF90AF90E6
:101050000895AF92BF92CF92DF92EF92FF920F93DB
:101060001F9386E08093AA0315E01093AB030E94C0
:10107000BB256BE470E00E940C250396AA2797FD20
:10108000A095BA2FBC01CD010E94A22360939A03C0
:1010900070939B0380939C0390939D030E94BB25B8
:1010A00069E170E00E940C250C96AA2797FDA09597
:1010B000BA2FBC01CD010E94A22360939E037093BE
:1010C0009F038093A0039093A10321E02093E90361
:1010D0002093EA0320E030E040E85FE30E948B22A7
:1010E0006093DD037093DE038093DF039093E0034E
:1010F00060919A0370919B0380919C0390919D0352
:1011000020E030E040E450E40E948C226093D90358
:101110007093DA038093DB039093DC0388E0809381
:10112000D4031093D5030E94BB2568E470E00E94AD
:101130000C250396AA2797FDA095BA2FBC01CD01D7
:101140000E94A2236093C4037093C5038093C603D7
:101150009093C703A090C403B090C503C090C6038A
:10116000D090C703E0909A03F0909B0300919C03FA
:1011700010919D03C601B501A80197010E940323A8
:1011800088238CF4C801B70120E030E040E051E44E
:101190000E948B229B01AC01C601B5010E94A524CF
:1011A00018160CF4C0CFC601B501A80197010E9422
:1011B000A524181684F4C801B70120E030E040E00F
:1011C00051E40E948C229B01AC01C601B5010E9432
:1011D000032387FDA8CF0E94BB2569E170E00E9430
:1011E0000C250C96AA2797FDA095BA2FBC01CD011E
:1011F0000E94A2236093C8037093C9038093CA031B
:101200009093CB03A090C803B090C903C090CA03C9
:10121000D090CB03E0909E03F0909F030091A00339
:101220001091A103C601B501A80197010E940323F3
:1012300088238CF4C801B70120E030E040E051E49D
:101240000E948B229B01AC01C601B5010E94A5241E
:1012500018160CF4C0CFC601B501A80197010E9471
:10126000A524181684F4C801B70120E030E040E05E
:1012700051E40E948C229B01AC01C601B5010E9481
:10128000032387FDA8CF62E06093130460931404E6
:1012900080E090E0A0E0B1E4809303049093040424
:1012A000A0930504B093060480E090E0A0ECB0E4C5
:1012B0008093070490930804A0930904B0930A0450
:1012C00098E09093950386E0809396039093800333
:1012D0008093810380E090E0A4EBB2E480938503E7
:1012E00090938603A0938703B0938803809374033D
:1012F00090937503A0937603B0937703809389034B
:1013000090938A03A0938B03B0938C038093700314
:1013100090937103A0937203B09373036093BF0320
:101320006093C00380E090E0A0E8B0E48093AF0356
:101330009093B003A093B103B093B20380E090E028
:10134000A0E7B2E48093B3039093B403A093B503F2
:10135000B093B6036093FE036093FF0320E030E098
:1013600040E450E42093EE033093EF034093F00306
:101370005093F1038093F2039093F303A093F4034B
:10138000B093F50360932804609329042093180414
:101390003093190440931A0450931B0480931C0447
:1013A00090931D04A0931E04B0931F041F910F91EE
:1013B000FF90EF90DF90CF90BF90AF900895EF92A5
:1013C000FF920F931F93DF93CF93CDB7DEB7C05536
:1013D000D0400FB6F894DEBF0FBECDBF7C010E9497
:1013E00093032DB73EB7285030400FB6F8943EBF58
:1013F0000FBE2DBFEDB7FEB731968E010F5F1F4FA9
:10140000ADB7BEB712961C930E93119720E031E052
:101410003383228364837583868397830E94E526C2
:10142000EDB7FEB738960FB6F894FEBF0FBEEDBF0E
:10143000C8016FE070E00E94B01805C00E944E180D
:101440000894E11CF11CD7018C918823B9F78DE039
:101450000E944E188AE00E944E18C05BDF4F0FB604
:10146000F894DEBF0FBECDBFCF91DF911F910F91DA
:10147000FF90EF9008952F923F924F925F926F925C
:101480007F928F929F92AF92BF92CF92DF92EF9214
:10149000FF920F931F93DF93CF93CDB7DEB7629781
:1014A0000FB6F894DEBF0FBECDBF10925F0310924F
:1014B0005E03109261031092600310924B0310922E
:1014C0004A0310924D0310924C0310926303109242
:1014D000620310926503109264032090C40330905D
:1014E000C5034090C6035090C703A0900304B0907A
:1014F0000404C0900504D09006048824992466242E
:101500007724B401882777FD8095982F0E94A22325
:101510009B01AC01C201B1010E948C227B018C01B4
:10152000A60195010E940323882381F0C601B5011D
:1015300020E030E040E85FE30E948C229B01AC0198
:10154000C801B7010E940323882319F431E0632EF8
:10155000712C0894811C911C29E08216910489F653
:1015600060924E0370924F032090C8033090C903DD
:101570004090CA035090CB038090070490900804D9
:10158000A0900904B0900A041A8A198ACC24DD2498
:10159000A989BA89BD01882777FD8095982F0E9477
:1015A000A2239B01AC01C201B1010E948C227B01EC
:1015B0008C01A50194010E940323882381F0C501B9
:1015C000B40120E030E040E85FE30E948C229B0100
:1015D000AC01C801B7010E940323882319F421E05C
:1015E000C22ED12CE989FA893196FA8BE98B36978C
:1015F00079F6C0925003D0925103F1E06F16710456
:1016000009F04AC021E0C216D10409F045C080911A
:10161000200390912103019690932103809320034E
:10162000109249031092480380E090E0A0E0B1E4FA
:101630008093030490930404A0930504B0930604DC
:1016400080E090E0A0ECB0E480930704909308045D
:10165000A0930904B0930A0480E191E00E94DF099D
:1016600080E090E0A0E7B2E48093C4039093C503C8
:10167000A093C603B093C7038093C8039093C90394
:10168000A093CA03B093CB031092DB021092DA024C
:1016900010925B0310925A038091C4039091C5038A
:1016A000A091C603B091C7038D879E87AF87B88B83
:1016B00040909A0350909B0360909C0370909D0310
:1016C00080904A0390904B03AA24BB2443C0B801E6
:1016D000882777FD8095982F0E94A2239B01AC015B
:1016E000C301B2010E948C229B01AC01C701B6016B
:1016F0000E940323882319F491E0892E912C0F5F17
:101700001F4F0730110519F70894A11CB11C99E06F
:10171000A916B104F9F480924A0390924B03809188
:10172000C8039091C903A091CA03B091CB038987E4
:101730009A87AB87BC8740909E0350909F03609030
:10174000A0037090A103E0904C03F0904D0322247D
:10175000332438C0B501882777FD8095982F0E94E3
:10176000A2239B01AC016D857E858F8598890E949F
:101770008C226B017C0100E010E0A9CFB801882722
:1017800077FD8095982F0E94A2239B01AC01C30195
:10179000B2010E948C229B01AC01C601B5010E94DE
:1017A0000323882319F481E0E82EF12C0F5F1F4FEB
:1017B0000630110519F70894211C311C96E02916F2
:1017C0003104A1F0B101882777FD8095982F0E9400
:1017D000A2239B01AC0169857A858B859C850E943B
:1017E0008C225B016C0100E010E0C8CFE0924C035A
:1017F000F0924D03A1E08A16910409F0D6C0B1E041
:10180000EB16F10409F0D1C08091D6029091D70275
:1018100001979093D7028093D6028FE191E00E94C6
:10182000DF090E94BB2568E470E00E940C25039646
:10183000AA2797FDA095BA2FBC01CD010E94A22333
:1018400060939A0370939B0380939C0390939D03F2
:10185000A090C403B090C503C090C603D090C70346
:10186000E0909A03F0909B0300919C0310919D03DC
:10187000C601B501A80197010E94032388238CF4B7
:10188000C801B70120E030E040E051E40E948B2223
:101890009B01AC01C601B5010E94A52418160CF4E9
:1018A000C0CFC601B501A80197010E94A524181652
:1018B00084F4C801B70120E030E040E051E40E9428
:1018C0008C229B01AC01C601B5010E94032387FD58
:1018D000A8CF0E94BB256CE170E00E940C250C96FD
:1018E000AA2797FDA095BA2FBC01CD010E94A22383
:1018F00060939E0370939F038093A0039093A10332
:10190000A090C803B090C903C090CA03D090CB0385
:10191000E0909E03F0909F030091A0031091A1031B
:10192000C601B501A80197010E94032388238CF406
:10193000C801B70120E030E040E051E40E948B2272
:101940009B01AC01C601B5010E94A52418160CF438
:10195000C0CFC601B501A80197010E94A5241816A1
:1019600084F4C801B70120E030E040E051E40E9477
:101970008C229B01AC01C601B5010E94032387FDA7
:10198000A8CF80E090E0A0E0B0E08093D9039093EE
:10199000DA03A093DB03B093DC038093DD03909321
:1019A000DE03A093DF03B093E00320908503309023
:1019B00086034090870350908803A0900304B09062
:1019C0000404C0900504D090060460905E037090FB
:1019D0005F0388249924B401882777FD8095982F88
:1019E0000E94A2239B01AC01C201B1010E948C2282
:1019F0007B018C01A60195010E940323882381F0BD
:101A0000C601B50120E030E040E85FE30E948C228F
:101A10009B01AC01C801B7010E940323882319F47C
:101A200011E0612E712C0894811C911CE0E18E164E
:101A3000910489F660925E0370925F03209089039F
:101A400030908A0340908B0350908C038090070461
:101A500090900804A0900904B0900A04C09060031C
:101A6000D09061031A8A198A29893A89B90188278D
:101A700077FD8095982F0E94A2239B01AC01C201A3
:101A8000B1010E948C227B018C01A50194010E946E
:101A90000323882381F0C501B40120E030E040E851
:101AA0005FE30E948C229B01AC01C801B7010E9438
:101AB0000323882319F4B1E0CB2ED12C89899A898C
:101AC00001969A8B898B079779F6C0926003D09222
:101AD000610391E06916710409F051C0A1E0CA16D2
:101AE000D10409F04CC08091E0029091E10201978D
:101AF0009093E1028093E002109249031092480310
:101B000020E030E040E051E42093030430930404EB
:101B1000409305045093060420E030E040EC50E48C
:101B200020930704309308044093090450930A0457
:101B3000892B29F580912003909121030A96909397
:101B400021038093200388E391E00E94DF0980E075
:101B500090E0A0E7B2E48093850390938603A0937E
:101B60008703B09388038093890390938A03A0939B
:101B70008B03B0938C0310925D0310925C038091F1
:101B8000850390918603A0918703B09188038D838C
:101B90009E83AF83B88740909A0350909B036090D8
:101BA0009C0370909D038090620390906303AA242D
:101BB000BB2443C0B801882777FD8095982F0E94E9
:101BC000A2239B01AC01C301B2010E948C229B01A4
:101BD000AC01C701B6010E940323882319F4A1E0D8
:101BE0008A2E912C0F5F1F4F0730110519F70894AB
:101BF000A11CB11C90E1A916B104F9F48092620312
:101C0000909263038091890390918A03A0918B0342
:101C1000B0918C0389839A83AB83BC8340909E03ED
:101C200050909F036090A0037090A103E090640324
:101C3000F09065032224332438C0B501882777FD4E
:101C40008095982F0E94A2239B01AC016D817E811B
:101C50008F8198850E948C226B017C0100E010E04E
:101C6000A9CFB801882777FD8095982F0E94A223DD
:101C70009B01AC01C301B2010E948C229B01AC010B
:101C8000C601B5010E940323882319F4F1E0EF2E69
:101C9000F12C0F5F1F4F0630110519F70894211C16
:101CA000311C97E029163104A1F0B101882777FD96
:101CB0008095982F0E94A2239B01AC0169817A81B3
:101CC0008B819C810E948C225B016C0100E010E002
:101CD000C8CFE0926403F0926503A1E08A169104F4
:101CE00009F0D6C0B1E0EB16F10409F0D1C0809143
:101CF000D6029091D70201979093D7028093D60293
:101D000087E491E00E94DF090E94BB256CE470E04B
:101D10000E940C250396AA2797FDA095BA2FBC0117
:101D2000CD010E94A22360939A0370939B0380933A
:101D30009C0390939D03A0908503B0908603C09070
:101D40008703D0908803E0909A03F0909B03009162
:101D50009C0310919D03C601B501A80197010E9443
:101D6000032388238CF4C801B70120E030E040E869
:101D700051E40E948B229B01AC01C601B5010E9477
:101D8000A52418160CF4C0CFC601B501A80197010F
:101D90000E94A524181684F4C801B70120E030E0A1
:101DA00040E851E40E948C229B01AC01C601B501C0
:101DB0000E94032387FDA8CF0E94BB2561E270E04B
:101DC0000E940C250C96AA2797FDA095BA2FBC015E
:101DD000CD010E94A22360939E0370939F03809382
:101DE000A0039093A103A0908903B0908A03C090B0
:101DF0008B03D0908C03E0909E03F0909F030091A2
:101E0000A0031091A103C601B501A80197010E948A
:101E1000032388238CF4C801B70120E030E040E8B8
:101E200051E40E948B229B01AC01C601B5010E94C6
:101E3000A52418160CF4C0CFC601B501A80197015E
:101E40000E94A524181684F4C801B70120E030E0F0
:101E500040E851E40E948C229B01AC01C601B5010F
:101E60000E94032387FDA8CF80E090E0A0E0B0E0CF
:101E70008093D9039093DA03A093DB03B093DC0340
:101E80008093DD039093DE03A093DF03B093E00320
:101E900062960FB6F894DEBF0FBECDBFCF91DF9133
:101EA0001F910F91FF90EF90DF90CF90BF90AF9078
:101EB0009F908F907F906F905F904F903F902F906A
:101EC00008958FE30E94842180B38F7980BB0E94A4
:101ED000DF172198279850985198E1E8F0E0808129
:101EE00085608083EFE6F0E0808181608083789474
:101EF0000895CF93DF93C8ECD0E075C08AE062E02C
:101F000040E651E00E942B218CE06AE04EE651E071
:101F10000E942B2184E162E14BE751E00E942B21DA
:101F200085E060E244E851E00E942B218AE068E20B
:101F300043E951E00E942B210E94502180916A03C5
:101F400090916B03892B81F50E94FA19882361F126
:101F500080916A0390916B03019690936B03809339
:101F60006A030E94561F8CE062E142EA51E00E943F
:101F70002B2184E16AE140EB51E00E942B210E9479
:101F8000502184EB91E00E94DF098FEC91E00E94E8
:101F9000DF0984EE91E00E94DF0980E395E7FE010E
:101FA0003197F1F70197D9F70E94561F14C00E948C
:101FB000FB1797FFFCCF88EE93E0FE013197F1F716
:101FC0000197D9F780911E0390911F03019690937A
:101FD0001F0380931E037D99EACF7E99E8CF0E946C
:101FE000FB1797FFE4CF80911E0390911F03892B6D
:101FF00009F484CF0E94561F88E266E146EF51E063
:102000000E942B210E94502188EB9BE028EC30E0BD
:10201000F9013197F1F70197D9F788E266E148EFC6
:1020200051E00E942B210E94502188EB9BE028EC7C
:1020300030E0F9013197F1F70197D9F788E266E1CD
:102040004AEF51E00E942B210E94502188EB9BE037
:1020500028EC30E0F9013197F1F70197D9F70E94A8
:10206000561FDF91CF910895EF92FF920F931F9328
:10207000CF93DF930E94561F88E064E14CEF51E05C
:102080000E942B210E94502148ECE42EF12C03E009
:1020900010E0C1E0D0E030C0F7013197F1F70197CF
:1020A000D9F710921F0310921E031093D7020093CA
:1020B000D602109221031092200310922303109253
:1020C00022031092250310922403109227031092EA
:1020D00026030E94790F0E9429080E94BB2562E016
:1020E00070E00E940C250296909333038093320394
:1020F000D093DB02C093DA027E9B03C088EE93E0AC
:10210000CBCF0E94FB1785369105C1F37D99F6CFA1
:10211000DF91CF911F910F91FF90EF900895EF9273
:10212000FF920F931F93DF93CF93CDB7DEB7C055C8
:10213000D0400FB6F894DEBF0FBECDBF80E060E0A8
:1021400043E520E00E94911F80E06AE043E52AE039
:102150000E94911F80E06FE243E52FE20E94911FF1
:1021600080E060E040E02FE20E94911F83E560E0A4
:1021700043E52FE20E94911F82E062E048E052E0D6
:102180000E942B2100D000D000D0EDB7FEB73196D1
:102190008E010F5F1F4FADB7BEB712961C930E9303
:1021A00011978BE092E0938382838091D602909185
:1021B000D702958384830E94E5268DB79EB7069645
:1021C0000FB6F8949EBF0FBE8DBF8BE062E0A801F2
:1021D0000E942B2184E162E04FE052E00E942B211B
:1021E00000D000D000D0EDB7FEB73196ADB7BEB786
:1021F00012961C930E93119752E1E52E52E0F52EA4
:10220000F382E28280912603909127039583848351
:102210000E94E5268DB79EB706960FB6F8949EBF2E
:102220000FBE8DBF8EE162E0A8010E942B2188E2E3
:1022300062E047E152E00E942B2100D000D000D0A4
:10224000EDB7FEB73196ADB7BEB712961C930E939D
:102250001197F382E2828091240390912503958364
:1022600084830E94E5268DB79EB706960FB6F89434
:102270009EBF0FBE8DBF8DE262E0A8010E942B21A0
:102280008FE362E049E152E00E942B2100D000D0B0
:1022900000D0EDB7FEB73196ADB7BEB712961C931E
:1022A0000E931197F382E282809120039091210393
:1022B000958384830E94E5268DB79EB706960FB658
:1022C000F8949EBF0FBE8DBF88E462E0A8010E9413
:1022D0002B21C05BDF4F0FB6F894DEBF0FBECDBF22
:1022E000CF91DF911F910F91FF90EF9008952F9262
:1022F0003F924F925F926F927F928F929F92AF9296
:10230000BF92CF92DF92EF92FF920F931F93DF93D2
:10231000CF93CDB7DEB7C055D0400FB6F894DEBF2F
:102320000FBECDBF80E88093610081E080936100A3
:102330000E94610F0E94790F8AE993E040E050E02B
:1023400060E070E08A019B01EE24CC24A2EEAA2E6C
:10235000A2E0BA2E0E94D22189ED93E040E050E045
:1023600060E070E08A019B01F9EEAF2EF2E0BF2E33
:102370000E94D22184EC93E040E050E060E070E005
:102380008A019B01E0EFAE2EE2E0BE2E0E94D22138
:1023900083E094E040E050E060E070E08A019B015F
:1023A000B7EFAB2EB2E0BB2E0E94D22180E793E0C4
:1023B00040E050E060E070E08A019B01A5E0AA2EB9
:1023C000A3E0BA2E0E94D22185E893E040E050E0DD
:1023D00060E070E08A019B01FEEFAF2EF2E0BF2EBD
:1023E0000E94D2218FEA93E040E050E060E070E08C
:1023F0008A019B01ECE0AE2EE3E0BE2E0E94D221CA
:102400008EEE93E040E050E060E070E08A019B01D6
:102410000E94D22188E194E040E050E060E070E06A
:102420008A019B010E94D2210E9429080E94BB259B
:1024300062E070E00E940C25029690933303809333
:1024400032039AC50E94FB17D82E0E948F108AE98A
:1024500093E00E94FA2189ED93E00E94FA2184EC36
:1024600093E00E94FA2183E094E00E94FA210E9406
:10247000AD0280915C0390915D03019739F585E889
:1024800093E00E94FA2180E793E00E94FA21809174
:10249000E0029091E1021816190624F48FEA93E005
:1024A0000E94FA218091E0029091E102029724F0CB
:1024B0008EEE93E00E94FA218091E0029091E10279
:1024C000039721F488E194E00E94FA218091DA02D6
:1024D0009091DB02019711F40E941D050E943B0AB6
:1024E000499903C087E7D81649F5E0909E03F0901C
:1024F0009F030091A0031091A103C801B70120E040
:1025000030E040E451E40E9403238823B9F0C8017D
:10251000B70120E030E040E85FE30E948B22609347
:102520009E0370939F038093A0039093A10320E0E8
:1025300030E040E85FE30E948B222DC01F9903C06A
:1025400093E7D916E9F5E0909E03F0909F03009180
:10255000A0031091A103C801B70120E030E044E2DC
:1025600052E40E940323882359F1C801B70120E0F7
:1025700030E040E85FE30E948C2260939E037093FA
:102580009F038093A0039093A10320E030E040EAF2
:1025900050E40E948C226093DD037093DE038093ED
:1025A000DF039093E00360919A0370919B03809105
:1025B0009C0390919D0320E030E040E450E493C000
:1025C000199904C0A1E6DA1609F047C0E0909A0311
:1025D000F0909B0300919C0310919D03C801B701EB
:1025E00020E030E040E85FE30E9403238823A9F164
:1025F000C801B70120E030E040E85FE30E948B2291
:102600007B018C01CB01D80180939A0390939B03AB
:10261000A0939C03B0939D0360919E0370919F03D0
:102620008091A0039091A10320E030E040E050E4CD
:102630000E948C226093DD037093DE038093DF039E
:102640009093E003C701D8018093D9039093DA03F4
:10265000A093DB03B093DC0350C0489904C0B4E6F8
:10266000DB1609F04AC0E0909A03F0909B030091BA
:102670009C0310919D03C801B70120E030E048E9B8
:1026800052E40E9403238823C1F1C801B70120E06E
:1026900030E040E85FE30E948C227B018C01609374
:1026A0009A0370939B0380939C0390939D03609186
:1026B0009E0370919F038091A0039091A10320E05D
:1026C00030E040E050E40E948C226093DD03709380
:1026D000DE038093DF039093E003C801B70120E09D
:1026E00030E040EC50E40E948C226093D903709358
:1026F000DA038093DB039093DC037D9904C0E5E665
:10270000DE1609F04EC18091480390914903892B50
:1027100009F047C181E090E090934903809348031A
:1027200010924703109246036090DD037090DE0321
:102730008090DF039090E003E0909E03F0909F0371
:102740000091A0031091A103C801B70120E030E07F
:1027500040E85FE30E948B229B01AC01C401B301FE
:102760000E940323882309F044C0A0909A03B090EC
:102770009B03C0909C03D0909D03C601B50120E04F
:1027800030E040E450E40E948C229B01AC01609157
:10279000D9037091DA038091DB039091DC030E94EE
:1027A0000323882331F5A1E0B0E0B0934703A09361
:1027B0004603C801B70120E030E040E450E40E9445
:1027C0008B2260930704709308048093090490930C
:1027D0000A04C601B50120E030E040E050E40E9468
:1027E0008C226093030470930404809305049093F7
:1027F0000604C801B70120E030E040EA50E40E943E
:102800008C229B01AC01C401B3010E9403238823E5
:1028100009F044C0A0909A03B0909B03C0909C0321
:10282000D0909D03C601B50120E030E040E450E4C3
:102830000E948C229B01AC016091D9037091DA0354
:102840008091DB039091DC030E940323882331F500
:10285000E2E0F0E0F0934703E0934603C801B701DC
:1028600020E030E040EC50E40E948C2260930704AA
:10287000709308048093090490930A04C601B5017B
:1028800020E030E040E050E40E948C22609303049A
:10289000709304048093050490930604C801B70163
:1028A00020E030E040E050E40E948C225B016C01AB
:1028B000C401B301A60195010E940323882309F0F6
:1028C00070C0E0909A03F0909B0300919C031091DC
:1028D0009D036091D9037091DA038091DB0390919D
:1028E000DC03A80197010E9403238823F1F483E00D
:1028F00090E09093470380934603A0920704B09220
:102900000804C0920904D0920A04C801B70120E06B
:1029100030E040E050E40E948B2260930304709307
:1029200004048093050490930604E0909A03F090C9
:102930009B0300919C0310919D03C801B70120E007
:1029400030E040EC50E40E948C229B01AC0160918D
:10295000D9037091DA038091DB039091DC030E942C
:1029600003238823F1F4A4E0B0E0B0934703A093DD
:102970004603A0920704B0920804C0920904D092C2
:102980000A04C801B70120E030E040EE50E40E94A4
:102990008C22609303047093040480930504909345
:1029A00006042091320330913303809124039091E7
:1029B00025032817390709F0ECC080913403909162
:1029C0003503019709F4E5C020909A0330909B03EA
:1029D00040909C0350909D03C201B10120E030E083
:1029E00040E450E40E948C2260932A0370932B03EE
:1029F00080932C0390932D0360909E0370909F030F
:102A00008090A0039090A103C401B30120E030E0C6
:102A100040E450E40E948C2260932E0370932F03B5
:102A200080933003909331036091C4037091C50388
:102A30008091C6039091C703A20191010E948B224D
:102A40007B018C01E89417F96091C8037091C90368
:102A50008091CA039091CB03A40193010E948B2221
:102A60005B016C01E894D7F8C801B701A601950194
:102A70000E94A524181624F5C801B701A6019501E6
:102A80000E948C229B01AC01C801B7010E94072360
:102A90009B01AC0160933E0370933F03809340031E
:102AA0009093410360E070E080E89FE30E948B22F6
:102AB00060934203709343038093440390934503D0
:102AC0006091C4037091C5038091C6039091C703C0
:102AD000A20191010E948B225B016C01E894D7F85E
:102AE0006091C8037091C9038091CA039091CB0390
:102AF000A40193010E948B227B018C01E89417F9B9
:102B0000C601B501A80197010E940323882324F57B
:102B1000C601B501A80197010E948C229B01AC015E
:102B2000C801B7010E9407239B01AC0160934203D7
:102B300070934303809344039093450360E070E0F7
:102B400080E89FE30E948B2260933E0370933F03D3
:102B5000809340039093410380E090E0A0E0B0E0D8
:102B60008093360390933703A0933803B0933903CF
:102B700080933A0390933B03A0933C03B0933D03AF
:102B8000A1E0B0E0B0933503A093340302C00E94EB
:102B900034108091D6029091D702892BC1F3809195
:102BA000220390912303099709F02BC1EDB7FEB7DB
:102BB00038970FB6F894FEBF0FBEEDBF0DB71EB726
:102BC0000F5F1F4F81E090E08C0F9D1F92838183E8
:102BD000ECE1F2E0D8011396FC93EE93129760912A
:102BE0009A0370919B0380919C0390919D030E9496
:102BF0006F23D80115967C936E93149760919E0372
:102C000070919F038091A0039091A1030E946F2374
:102C1000F801778366830E94E5268DB79EB70896F4
:102C20000FB6F8949EBF0FBE8DBFCE0101960E94D5
:102C3000DF0960919E0370919F038091A0039091A2
:102C4000A10320E030E040E85FE30E948B229B017B
:102C5000AC016091DD037091DE038091DF03909100
:102C6000E0030E940323882301F560919A03709189
:102C70009B0380919C0390919D0320E030E040E411
:102C800050E40E948C229B01AC016091D9037091A9
:102C9000DA038091DB039091DC030E9403238823F5
:102CA00021F48DE492E00E94DF0960919E0370910F
:102CB0009F038091A0039091A10320E030E040EABF
:102CC00050E40E948C229B01AC016091DD03709165
:102CD000DE038091DF039091E0030E9403238823A9
:102CE00001F560919A0370919B0380919C039091F0
:102CF0009D0320E030E040E450E40E948C229B01E0
:102D0000AC016091D9037091DA038091DB0390915B
:102D1000DC030E940323882321F48AE692E00E94C8
:102D2000DF0960919E0370919F038091A0039091B1
:102D3000A10320E030E040E050E40E948C229B019F
:102D4000AC016091DD037091DE038091DF0390910F
:102D5000E0030E9403238823C1F46091D90370919A
:102D6000DA038091DB039091DC0320919A03309188
:102D70009B0340919C0350919D030E940323882351
:102D800021F489E892E00E94DF0960919E0370912E
:102D90009F038091A0039091A10320E030E040E0E8
:102DA00050E40E948C229B01AC016091DD03709184
:102DB000DE038091DF039091E0030E9403238823C8
:102DC00001F560919A0370919B0380919C0390910F
:102DD0009D0320E030E040EC50E40E948C229B01F7
:102DE000AC016091D9037091DA038091DB0390917B
:102DF000DC030E940323882321F48FEA92E00E94DF
:102E0000DF090E94FB1797FFFCCF80915C03909134
:102E10005D03892B11F52091DE023091DF02809154
:102E200020039091210328173907B9F40E94DC038D
:102E3000A1E0B0E0B0935D03A0935C038091200318
:102E4000909121030B969093DF028093DE02E3E0E2
:102E5000F0E0F093E102E093E0022091DC02309197
:102E6000DD0280912003909121032817390709F092
:102E700050C080915A0390915B03892B09F049C09F
:102E80000E94680780915A0390915B03019690938A
:102E90005B0380935A0380912003909121030B964A
:102EA0009093DD028093DC0281E090E09093DB025E
:102EB0008093DA02109235031092340300912403B8
:102EC000109125030E94BB250E5F1F4F62E070E04A
:102ED0000E940C25080F191F10933303009332032F
:102EE0000D33110534F00C5310401093330300934D
:102EF0003203109253031092520310925503109212
:102F000054031092570310925603109259031092D3
:102F100058038091220390912303019690932303F9
:102F2000809322030A97E1F4109223031092220364
:102F3000809124039091250301969093250380931B
:102F40002403CC9769F4809126039091270301967E
:102F50009093270380932603109225031092240355
:102F60000E9450210E94561F84EF91E0E8ECF0E0AF
:102F70003197F1F70197D1F78091280390912903B8
:102F8000019709F05FCA80E090E0C05BDF4F0FB6A9
:102F9000F894DEBF0FBECDBFCF91DF911F910F918F
:102FA000FF90EF90DF90CF90BF90AF909F908F9069
:102FB0007F906F905F904F903F902F90089581E0A9
:102FC0008093D70080EA8093D80082E189BD09B45C
:102FD00000FEFDCF80E98093D8001092E0001092AF
:102FE0006C0310926D038CE08093E2007894089556
:102FF00080916C0308952FB7F89480916C03882317
:1030000069F083E08093E9009BE68091E80085FD0C
:1030100009C082FF03C09093E800F7CF2FBF2FEFC6
:103020003FEF0CC09091F1008091E80085FD03C056
:103030008BE68093E8002FBF292F30E0C901089567
:103040002FB7F89480916C03882311F490E010C09E
:1030500083E08093E9009091F200992349F48091F4
:10306000E80082FF05C085FD03C08BE68093E80081
:103070002FBF892F089580916C03882371F09FB72B
:10308000F89483E08093E9002BE602C02093E800E7
:103090008091E80085FDFACF9FBF0895482F809169
:1030A0006C038823D9F12FB7F89484E08093E9006A
:1030B00080916F03882341F08091E80085FD02C074
:1030C0002FBF12C010926F039091E400975E34E01E
:1030D0008091E80085FD13C02FBF8091E40089171F
:1030E00029F481E080936F038FEF089580916C0342
:1030F0008823A1F02FB7F8943093E900E9CF4093EB
:10310000F1008091E80085FD03C08AE38093E80028
:1031100085E080936E032FBF80E008958FEF0895C0
:10312000282F80916C03882351F09FB7F89484E096
:103130008093E9008091E80085FD03C09FBF8FEF79
:1031400008952093F1008091E80085FD03C08AE393
:103150008093E80085E080936E039FBF80E0089530
:10316000CF93DF93EC0180916C03882309F41CC199
:103170003FB7F89484E08093E90080916F0388233F
:1031800009F408C18091E80085FD02C03FBF0CC171
:1031900010926F03FFC09091E400975E8091E80069
:1031A00085FD13C03FBF8091E400891721F481E0C1
:1031B00080936F03F9C080916C03882309F4F4C0F5
:1031C0003FB7F894B093E900E9CF8091F200242F43
:1031D000281B822F90E06817790708F4262F822F8A
:1031E00090E08134910508F0C6C08A5A9F4FFC01D7
:1031F000EE0FFF1F0590F491E02D099489918093C3
:10320000F10089918093F10089918093F100899177
:103210008093F10089918093F10089918093F1006E
:1032200089918093F10089918093F1008991809335
:10323000F10089918093F10089918093F100899147
:103240008093F10089918093F10089918093F1003E
:1032500089918093F10089918093F1008991809305
:10326000F10089918093F10089918093F100899117
:103270008093F10089918093F10089918093F1000E
:1032800089918093F10089918093F10089918093D5
:10329000F10089918093F10089918093F1008991E7
:1032A0008093F10089918093F10089918093F100DE
:1032B00089918093F10089918093F10089918093A5
:1032C000F10089918093F10089918093F1008991B7
:1032D0008093F10089918093F10089918093F100AE
:1032E00089918093F10089918093F1008991809375
:1032F000F10089918093F10089918093F100899187
:103300008093F10089918093F10089918093F1007D
:1033100089918093F10089918093F1008991809344
:10332000F10089918093F10089918093F100899156
:103330008093F10089918093F10089918093F1004D
:1033400089918093F10089918093F1008991809314
:10335000F10089918093F10089918093F100899126
:103360008093F10089918093F10089918093F1001D
:1033700089918093F10089918093F1008091E80018
:1033800085FD02C05093E800621B7109A0936E0393
:103390003FBF04C0B4E040E45AE3A5E06115710505
:1033A00009F0F9CE80E001C08FEFDF91CF91089551
:1033B0009FB7F89480916E03882341F084E0809356
:1033C000E9008AE38093E80010926E039FBF08959E
:1033D000609113037091140380911503909116036B
:1033E000089580911703089580911803089580919E
:1033F0001903089580916D030895282F9FB7F894BD
:1034000080916C03882339F082E08093E9008091F9
:10341000E80085FD03C09FBF8FEF089581EA809388
:10342000F10080E28093F1001092F1001092F1001F
:103430001092F1001092F10081E08093F10010925F
:10344000F1002093F1008AE38093E8009FBF80E0C1
:1034500008951F920F920FB60F9211248F939F938E
:103460008091E1001092E100982F83FF11C010922B
:10347000E90081E08093EB001092EC0082E1809300
:10348000ED0088E08093F00010926C0310926D03C1
:1034900092FF13C080916C03882379F080916E03B2
:1034A000882359F0815080936E03882331F484E09F
:1034B0008093E9008AE38093E8009F918F910F90B9
:1034C0000FBE0F901F9018951F920F920FB60F927C
:1034D00011240F931F932F933F934F935F936F93F9
:1034E0007F938F939F93AF93BF93EF93FF9310922C
:1034F000E9008091E80083FF3CC14091F1003091E8
:10350000F1008091F100682F70E02091F100922F7E
:1035100080E0682B792B8091F100A82FB0E02091FA
:10352000F100922F80E0A82BB92B1091F1000091AF
:10353000F10082EF8093E800363009F05AC025E3AD
:1035400031E0A90145505040F90137978591949198
:103550008617970701F5FA01859194918A179B07C1
:10356000D1F49A012E5F3F4FF901659174912E5F5E
:103570003F4FF9014491212F30E0902F80E0282B1C
:10358000392B2F3F310519F010F02FEF30E02417C1
:1035900058F4422F09C0295F3F4F495F5F4FF1E068
:1035A0002F353F0789F6E5C05EEF8091E800282FB0
:1035B00030E0C90185709070892BB9F322FDDCC021
:1035C000342F413108F030E1232FCB0106C0FC013C
:1035D0000196E491E093F10021502223C1F7630F9B
:1035E000711D431B5093E8004423F9F63031E9F292
:1035F000C3C0353061F48EEF8093E8008091E8001D
:1036000080FFFCCF862F80688093E300B5C03930FF
:1036100051F5442309F0ADC060936C0310926D0323
:1036200010926E038EEF8093E80088E591E021E030
:103630002093E900FC010196E491E093EB00EE2376
:1036400069F0AC014F5F5F4FFC0184918093EC0007
:10365000CA010196FA0134913093ED002F5F2530B5
:1036600039F78EE181C0383061F4403809F081C00B
:103670008091E80080FFFCCF80916C038093F10083
:1036800050C0313289F4413A09F073C08091E800AA
:1036900080FFFCCFE3E1F3E081918093F10083E0D0
:1036A000EA31F807C9F73DC03032A1F4413209F0E0
:1036B00060C08091E80082FFFCCFE3E1F3E08091FD
:1036C000F100819383E0EA31F807C9F78BEF80932B
:1036D000E80027C0323251F4413209F04AC0609309
:1036E0006D038091E80080FFFCCF1BC03323E9F419
:1036F0008091E80080FFFCCF423811F080E00DC0DF
:10370000A093E9008091EB0090E025E096958795E5
:103710002A95E1F781701092E9008093F1001092F0
:10372000F1008EEF8093E80027C0313011F0333084
:1037300001F54230F1F4672BE1F42A2F2F77822F25
:1037400081508430B0F48EEF8093E8002093E9003C
:10375000333079F089E18093EB0081E090E002C0A2
:10376000880F991F2A95E2F78093EA001092EA00E9
:1037700003C081E28093EB00FF91EF91BF91AF9185
:103780009F918F917F916F915F914F913F912F9179
:103790001F910F910F900FBE0F901F901895A1E1F0
:1037A000B0E0E5EDFBE10C941F253C017F876E87BF
:1037B0006A01FC0117821682838181FD03C06FEFCD
:1037C0007FEF6FC39E012F5F3F4F398B288BF30133
:1037D0002381EE85FF8523FD859123FF8191FF875E
:1037E000EE87882309F45AC3853251F4EE85FF85AC
:1037F00023FD859123FF8191FF87EE87853229F490
:1038000090E0B3010E94B926E2CF982F10E08824FF
:1038100099241032B0F49B3269F09C3228F4903233
:1038200051F0933271F40BC09D3239F0903349F46A
:10383000116028C01260146025C0186023C0106198
:1038400021C017FD2AC0892F80538A3078F416FFD3
:1038500006C0FAE09F9E902C1124980E13C03AE007
:10386000839E802C1124880E10620CC09E3221F49D
:1038700016FD14C3106406C09C3611F4106802C013
:10388000983659F4EE85FF8523FD959123FF91919C
:10389000FF87EE87992309F0BCCF892F85548330A9
:1038A00020F4812F8061905E07C0892F8556833078
:1038B00008F09FC1812F8F7E86FD02C076E0972E93
:1038C0006FE3F62EF822953619F4F0E4FF2A07C0CC
:1038D000963619F420E8F22A02C091109A94F7FE65
:1038E0000AC03BE3391518F45CE3B52E02C0B92CCD
:1038F000B39427E009C047E0491520F4BB2447E012
:10390000942EF7CF292DBB24C60104969D878C8762
:10391000F6016081718182819381AE014F5F5F4FBB
:103920000B2D0E94CB256C010981202E332400FF32
:1039300004C003FD02C01DE209C0F1FE02C01BE28B
:1039400005C0F2FC02C010E001C010E2C1018C70A1
:103950009070892BB9F1112311F483E001C084E048
:10396000881510F088240AC0881AF3FC07C080E28A
:1039700090E0B3010E94B9268A94C9F7112329F077
:10398000812F90E0B3010E94B92623FE03C007EF08
:1039900011E00EC00BEF11E00BC0E114F10409F0CF
:1039A000805290E0B3010E94B9260F5F1F4F05C0FF
:1039B000EF2CFF24F0E1EF22FF24F801849188230B
:1039C00061F714C1F7FE12C0BC0C24FE04C08A814A
:1039D000813309F4BA941B141CF0BB24B3942DC09A
:1039E000F8E0FB1550F538E0B32E27C0F6FC25C0F3
:1039F000892D90E08C159D054CF02CEFC2162FEF11
:103A0000D20624F030E8F32A01C09A94992049F0B4
:103A1000E2E0F0E0EC0FFD1FE90DF11D8081803345
:103A2000A1F3F7FE0AC0B92CB394892D90E0C81613
:103A3000D90614F0992401C09C18F7FC03C025E0B6
:103A400030E009C01C141D041CF021E030E003C06C
:103A500096012F5F3F4F112311F02F5F3F4F9920A9
:103A600029F0892D90E00196280F391F882D90E0CC
:103A70002817390714F0882401C0821A4F2C5524C6
:103A8000C20189709070892B39F008C080E290E003
:103A9000B3010E94B9268A948820C1F7112329F026
:103AA000812F90E0B3010E94B92643FE07C008C0F1
:103AB00080E390E0B3010E94B9268A948820C1F780
:103AC000F7FE46C08601D7FE02C000E010E0760196
:103AD0000894E11CF11CE01AF10A41E050E04C0F9F
:103AE0005D1FE40EF51E26014B185108892D90E04C
:103AF000AA24BB24A81AB90A5FEF0F3F150729F4BF
:103B00008EE290E0B3010E94B926C016D10634F0CF
:103B1000401651061CF4F701808101C080E301507A
:103B200010400894E11CF11C0A151B052CF090E0D4
:103B3000B3010E94B926E0CF0C151D0539F49A8116
:103B4000963318F4953311F424FE81E390E04BC0D2
:103B50008A81813309F00F7E90E0B3010E94B9267B
:103B60009920A1F08EE290E0B3010E94B92612E004
:103B7000E1E0F0E0EC0FFD1FE10FF11D1F5F808120
:103B800090E0B3010E94B9269A9491F744FC03C0D7
:103B900085E690E002C085E490E0B3010E94B9267A
:103BA000D7FC05C0C114D10441F404FF06C0D09471
:103BB000C194D108D3948DE201C08BE290E0B301AF
:103BC0000E94B92680E305C08F5F26EF3FEFC20E4B
:103BD000D31E3AE0C316D104BCF790E0B3010E94B3
:103BE000B926C601C096B3010E94B926CC84DD84F3
:103BF00052C1933631F0933799F0933509F059C09B
:103C000023C0F601808189835E010894A11CB11C48
:103C100022E030E0C20ED31E21E0E22EF12C12C0D1
:103C2000F601A080B18016FD03C06FEF7FEF02C0E8
:103C3000692D70E022E030E0C20ED31EC5010E9463
:103C4000AE267C011F7713C0F601A080B18016FD5F
:103C500003C06FEF7FEF02C0692D70E022E030E01B
:103C6000C20ED31EC5010E94A3267C01106813FF5B
:103C700007C01BC080E290E0B3010E94B9268A947D
:103C8000882D90E0E816F906A8F30FC0F50117FD9E
:103C9000859117FF81915F0190E0B3010E94B926E1
:103CA00081108A940894E108F108E114F10471F795
:103CB000F2C0943611F0993689F517FF08C0F60165
:103CC000208131814281538184E090E00AC0F60175
:103CD000808191819C01442737FD4095542F82E0DB
:103CE00090E0C80ED91E9FE6F92EF12257FF09C0B9
:103CF00050954095309521953F4F4F4F5F4F90E83D
:103D0000F92ACA01B901AE014F5F5F4F2AE030E0E6
:103D10000E940927E82EE889EE1A41C0953721F460
:103D20001F7E2AE030E01CC0197F9F3661F090377B
:103D300020F4983509F0B2C00FC0903739F09837A9
:103D400009F0ACC004C028E030E00AC0106114FDE6
:103D5000146020E130E004C014FD166020E132E080
:103D600017FF08C0F601608171818281938144E070
:103D700050E008C0F60180819181BC0180E090E0B4
:103D800042E050E0C40ED51EAE014F5F5F4F0E946F
:103D90000927E82E5889E51A8FE7F82EF122F6FE5A
:103DA0000BC08EEFF822E91438F4F4FE07C0F2FCE1
:103DB00005C09FEEF92202C01E2D01C0192DF4FE90
:103DC0000DC0FE01EE0DF11D8081803319F4E9EE86
:103DD000FE2208C01F5FF2FE05C003C08F2D86784B
:103DE00009F01F5F0F2DF3FC14C0F0FE0FC0181573
:103DF00010F09E2C0BC09E2C980C911A182D06C00A
:103E000080E290E0B3010E94B9261F5F1815C0F34D
:103E100004C0181510F4811A01C0882404FF0FC0D3
:103E200080E390E0B3010E94B92602FF1DC001FDAE
:103E300003C088E790E00EC088E590E00BC0802FBB
:103E4000867891F001FF02C08BE201C080E2F7FCAE
:103E50008DE290E0B3010E94B92606C080E390E0B5
:103E6000B3010E94B9269A94E914C0F3EA94E1E000
:103E7000F0E0EC0FFD1FEE0DF11D808190E0B3012D
:103E80000E94B926EE2091F706C080E290E0B301CF
:103E90000E94B9268A948820C1F799CCF3016681E3
:103EA0007781CB016196E2E10C943B25EDE2F4E0F1
:103EB000119286E0E532F807D9F70895843580F548
:103EC000603370F5262F269526952695677090E02D
:103ED000442399F0E4E52E9FF0011124E80FF91F27
:103EE000E35DFB4F81E090E002C0880F991F6A9567
:103EF000E2F72081282B20830895E4E52E9FF0012E
:103F00001124E80FF91FE35DFB4F81E090E002C050
:103F1000880F991F6A95E2F78095208128232083D6
:103F200008952F923F924F925F926F927F928F925D
:103F30009F92AF92BF92CF92DF92EF92FF920F9338
:103F40001F93DF93CF93CDB7DEB72D970FB6F894BD
:103F5000DEBF0FBECDBFD82EC62E142F022F841762
:103F6000F9F4A62EBB24E22EFF240EC08D2D6A2D5F
:103F700041E00E945E1FC01620F40894A11CB11CF1
:103F800003C00894A108B108C01628F4EA14FB0481
:103F90000CF4FEC0EBCFAE14BF040CF4F9C0E6CFB6
:103FA000282F30E06017F9F4C9015C01E42EFF24EA
:103FB0000EC08A2D6C2D41E00E945E1FD11620F4A8
:103FC0000894A11CB11C03C00894A108B108D11623
:103FD00028F4EA14FB040CF4DBC0EBCFAE14BF04EE
:103FE0000CF4D6C0E6CF842F90E09A838983C90170
:103FF0005C0169817A81681B790B882777FD809540
:10400000982F0E94A2236F83788789879A87202E12
:1040100033244C2C5524B10164197509882777FD88
:104020008095982F0E94A2233B014C012F81388557
:1040300049855A850E9407236B837C838D839E83E9
:1040400020E030E040E050E00E94A52487FF0DC052
:10405000C401B30190582F81388549855A850E9443
:1040600007236B837C838D839E830F2EF0E0CF2EFE
:10407000F0E0DF2EF0E0EF2EF0E0FF2EF02D70C02C
:10408000AB868A2D642D41E00E945E1FC701B601F8
:104090002B813C814D815E810E948C2231C08B85B9
:1040A000642D41E00E945E1F1D861C86C401B30181
:1040B00020E030E040E050E00E94A524181624F4EF
:1040C000E1E0F0E0FD87EC8700E010E0C401B3011F
:1040D00020E030E040E050E00E940323882314F405
:1040E00001E010E08C859D85801B910B480E591EC8
:1040F000C701B60120E030E040E85FE30E948B2278
:104100006B017C0120E030E040E05FE30E94A524E9
:1041100088239CF0C401B30120E030E040E050E08F
:104120000E94A52418162CF4241435040CF0B7CFE3
:1041300004C0421453040CF0B2CF6F817885898596
:104140009A8520E030E040E050E00E94A524181657
:1041500024F40894A11CB11C03C00894A108B10860
:104160006F81788589859A8520E030E040E050E0D5
:104170000E94A524181634F4E981FA81EA15FB059A
:104180003CF07ECF89819A81A816B9060CF078CFD1
:104190002D960FB6F894DEBF0FBECDBFCF91DF9145
:1041A0001F910F91FF90EF90DF90CF90BF90AF9055
:1041B0009F908F907F906F905F904F903F902F9047
:1041C00008959F92AF92BF92CF92DF92EF92FF92AB
:1041D0000F931F93CF93DF93982EC62E85E0489FB1
:1041E000E0011124C05AD04000E081E0A82EB12C9B
:1041F00018C0612F6C0DA501012E02C0440F551F80
:104200000A94E2F74E215F21012E02C05595479591
:104210000A94E2F78D2D0E945E1F1F5F183049F748
:104220000F5F053061F0FE01E00FF11DE150FE4F20
:1042300010E0E491D02ED90CEE2EFF24EFCFDF91C9
:10424000CF911F910F91FF90EF90DF90CF90BF9093
:10425000AF909F900895EF92FF920F931F93CF938B
:10426000DF93F82E062F142F242F352FC901EC01D0
:1042700095E0E92E08C08E9DC00111248F0D602F9E
:104280000E94E12021969E01211B822F4881442318
:1042900091F7DF91CF911F910F91FF90EF900895CB
:1042A000CF93DF9380E060E00E94C521CDE2D4E0AF
:1042B00081E069910E94632186E0C532D807C1F789
:1042C000DF91CF91089595B18295880F807E9F7D73
:1042D000982B95B95F9827E030E070E08F98CB017C
:1042E000022E02C0959587950A94E2F780FF02C0DE
:1042F0002E9A01C02E988F9A215030408FEF2F3F79
:10430000380761F75F9A08951F93182F579A249AD8
:10431000259A269A879A2C985F9A2C9A80E061E2D7
:104320000E946321106880E0612F0E94632180E079
:1043300064E00E94632180E063E10E94632180E0E9
:104340006CE00E94632180E060E20E94632180E0D3
:104350006CE00E94632180E060E40E94632180E0C1
:1043600060E80E9463211F910895CF93DF93C0E01E
:10437000D0E081E060E00E946321219681E0C83FA7
:10438000D807B9F7DF91CF9108951F93182F606474
:1043900080E00E946321106880E0612F0E94632109
:1043A0001F910895AF92BF92CF92EF920F931F93F8
:1043B000FC014083518362837383048315832683C6
:1043C0003783E08AC18AB48AA38A81E0828B80E045
:1043D00090E0A0E0B0E080879187A287B3878487D0
:1043E0009587A687B7871F910F91EF90CF90BF90C9
:1043F000AF9008953F924F925F926F927F928F920B
:104400009F92AF92BF92CF92DF92EF92FF920F9363
:104410001F93CF93DF93EC018A89882309F469C045
:10442000688970E0882777FD8095982F0E94A223E5
:1044300020E030E040E05EE30E94A9240E94F022E8
:104440000E947423362E882447C0092D10E0B8013D
:10445000882777FD8095982F0E94A22320E030E0E6
:1044600040E05EE30E94A9240E94DD236B017C01F1
:10447000688179818A819B810E947423A92CA60E70
:104480006C817D818E819F810E947423B82CB60E31
:10449000C301B2010E94A223A70196010E948C22AF
:1044A0000E946F23EB89FC89E60FF71F408150E0E3
:1044B000009510950770107002C0559547950A95A4
:1044C000E2F741708A2D6B2D0E945E1F93948889BC
:1044D000981608F4BACF83948989881650F4839C7F
:1044E000C001112499242C01662457FC6094762C79
:1044F000EECFDF91CF911F910F91FF90EF90DF9062
:10450000CF90BF90AF909F908F907F906F905F9073
:104510004F903F9008955058BB27AA270ED0C4C192
:10452000B5D130F0BAD120F031F49F3F11F41EF430
:10453000AAC10EF4E095E7FB77C1E92FC6D180F35D
:10454000BA17620773078407950718F071F49EF590
:10455000F5C10EF4E0950B2EBA2FA02D0B01B90179
:1045600090010C01CA01A0011124FF27591B99F0E9
:10457000593F50F4503E68F11A16F040A22F232FF5
:10458000342F4427585FF3CF469537952795A79545
:10459000F0405395C9F77EF41F16BA0B620B730BEC
:1045A000840BBAF09150A1F0FF0FBB1F661F771F5D
:1045B000881FC2F70EC0BA0F621F731F841F48F412
:1045C000879577956795B795F7959E3F08F0B3CF98
:1045D0009395880F08F09927EE0F97958795089582
:1045E00096D180F09F3740F491110EF4A8C160E09D
:1045F00070E080E89FE3089526F01B16611D711D91
:10460000811D18C132C1ECD008F481E008950CD0AE
:104610004BC143D140F03AD130F021F45F3F19F063
:1046200003C151118CC12FC150D198F39923C9F303
:104630005523B1F3951B550BBB27AA2762177307A8
:10464000840738F09F5F5F4F220F331F441FAA1F5C
:10465000A9F333D00E2E3AF0E0E830D0915050401C
:10466000E695001CCAF729D0FE2F27D0660F771FCA
:10467000881FBB1F261737074807AB07B0E809F0AC
:10468000BB0B802DBF01FF2793585F4F2AF09E3F41
:10469000510568F0C9C053C15F3FECF3983EDCF3AD
:1046A000869577956795B795F7959F5FC9F7880FBA
:1046B000911D9695879597F90895E1E0660F771F0C
:1046C000881FBB1F621773078407BA0720F0621B9D
:1046D000730B840BBA0BEE1F88F7E095089504D096
:1046E0006894B1112CC10895F8D088F09F5790F0CC
:1046F000B92F9927B751A0F0D1F0660F771F881F07
:10470000991F1AF0BA95C9F712C0B13081F016D1CD
:10471000B1E0089513C1672F782F8827B85F39F06B
:10472000B93FCCF3869577956795B395D9F73EF465
:1047300090958095709561957F4F8F4F9F4F08950D
:10474000E89409C097FB3EF490958095709561952B
:104750007F4F8F4F9F4F9923A9F0F92F96E9BB27E1
:104760009395F695879577956795B795F111F8CF5D
:10477000FAF4BB0F11F460FF1BC06F5F7F4F8F4FC8
:104780009F4F16C0882311F096E911C0772321F0BE
:104790009EE8872F762F05C0662371F096E8862F56
:1047A00070E060E02AF09A95660F771F881FDAF7AD
:1047B000880F9695879597F90895A9D080F09F372F
:1047C00040F491110EF0BBC060E070E080E89FEB18
:1047D000089526F41B16611D711D811D2BC045C057
:1047E000990F0008550FAA0BE0E8FEEF1616170602
:1047F000E807F907C0F012161306E407F50798F06A
:10480000621B730B840B950B39F40A2661F0232B82
:10481000242B252B21F408950A2609F4A140A695FE
:104820008FEF811D811D089597F99F6780E870E0E3
:1048300060E00895882371F4772321F09850872B46
:10484000762F07C0662311F499270DC09051862B4F
:1048500070E060E02AF09A95660F771F881FDAF7FC
:10486000880F9695879597F908959F3F31F091505D
:1048700020F4879577956795B795880F911D969544
:10488000879597F908959FEF80EC089500240A9486
:104890001616170618060906089500240A9412161B
:1048A0001306140605060895092E0394000C11F44E
:1048B000882352F0BB0F40F4BF2B11F460FF04C0FB
:1048C0006F5F7F4F8F4F9F4F089557FD9058440F54
:1048D000551F59F05F3F71F04795880F97FB991F5F
:1048E00061F09F3F79F0879508951216130614061C
:1048F000551FF2CF4695F1DF08C0161617061806A9
:10490000991FF1CF86957105610508940895E5DF3B
:10491000A0F0BEE7B91788F4BB279F3860F41616DD
:10492000B11D672F782F8827985FF7CF86957795E9
:104930006795B11D93959639C8F30895E894BB2700
:1049400066277727CB0197F908954ADF08F48FEFA0
:1049500008950BD0A9CF9ADF28F09FDF18F0952398
:1049600009F062CF90CF1124EACFAFDFA0F3959F7B
:10497000D1F3950F50E0551F629FF001729FBB2746
:10498000F00DB11D639FAA27F00DB11DAA1F649FF2
:104990006627B00DA11D661F829F2227B00DA11DA5
:1049A000621F739FB00DA11D621F839FA00D611D2B
:1049B000221F749F3327A00D611D231F849F600D4C
:1049C000211D822F762F6A2F11249F5750408AF085
:1049D000E1F088234AF0EE0FFF1FBB1F661F771F11
:1049E000881F91505040A9F79E3F510570F01CCF91
:1049F000A6CF5F3FECF3983EDCF3869577956795FD
:104A0000B795F795E7959F5FC1F7FE2B880F911D2E
:104A10009695879597F9089597FB092E07260AD052
:104A200077FD04D043D006D000201AF4709561952C
:104A30007F4F0895F6F7909581959F4F08952F9297
:104A40003F924F925F926F927F928F929F92AF921E
:104A5000BF92CF92DF92EF92FF920F931F93CF936B
:104A6000DF93CDB7DEB7CA1BDB0B0FB6F894DEBF02
:104A70000FBECDBF09942A88398848885F846E8428
:104A80007D848C849B84AA84B984C884DF80EE8072
:104A9000FD800C811B81AA81B981CE0FD11D0FB67B
:104AA000F894DEBF0FBECDBFED010895AA1BBB1B5E
:104AB00051E107C0AA1FBB1FA617B70710F0A61B1E
:104AC000B70B881F991F5A95A9F780959095BC013F
:104AD000CD010895A0E0B0E0E0E7F5E20C942725D1
:104AE000EC01A880B980CA80DB80A114B104C104A4
:104AF000D10441F484E2A82E89EDB82E8BE5C82EAE
:104B000087E0D82EC601B5012DE133EF41E050E03A
:104B10000E94862727EA31E440E050E00E946727A0
:104B20007B018C01C601B5012DE133EF41E050E07E
:104B30000E948627CA01B9012CEE34EF4FEF5FEFD8
:104B40000E9467276E0D7F1D801F911F97FF04C075
:104B50006150704080409048688379838A839B834A
:104B60009B013F77C901CDB7DEB7EAE00C9443253E
:104B70000E946A2508958AE193E00E946A250895BB
:104B8000A0E0B0E080931A0390931B03A0931C0352
:104B9000B0931D030895283008F027E03327DA0189
:104BA000990F311D87FD916000966105710539F4FB
:104BB00032602E5F3D9330E32A95E1F708959F3FE1
:104BC00030F080387105610509F03C5F3C5F3D9332
:104BD000913008F08068911DDF93CF931F930F935E
:104BE000FF92EF92192F987F9695E92F96959695BB
:104BF000E90FFF27E75CFB4F99273327EE24FF24BB
:104C0000A701E70105900894079428F4360FE71EE2
:104C1000F81E491F511D660F771F881F991F0694A4
:104C2000A1F70590079428F4E70EF81E491F561FB8
:104C3000C11D770F881F991F661F0694A1F7059065
:104C4000079428F4F80E491F561FC71FD11D880F5F
:104C5000991F661F771F0694A1F70590079420F40B
:104C6000490F561FC71FD81F990F661F771F881F30
:104C70000694A9F784911095177041F0D695C795C1
:104C800057954795F794E7941A95C1F7EFEDF3E040
:104C900068941590159135916591959105907FE2F5
:104CA0007395E118F10A430B560BC90BD009C0F7F5
:104CB000E10CF11E431F561FC91FD01D7EF4703337
:104CC00011F48A95E6CFE894015030F0080F0AF409
:104CD0000027021708F4202F2395022F7A3328F09B
:104CE00079E37D932A95E9F710C07D932A9589F69B
:104CF000069497956795379517951794E118F10ADB
:104D0000430B560BC90BD00998F023957E917395F0
:104D10007A3308F070E37C932013B8F77E917061CA
:104D20007D9330F0839571E37D9370E32A95E1F7ED
:104D30001124EF90FF900F911F91CF91DF91992750
:104D400087FD90950895FC01059061507040011019
:104D5000D8F7809590958E0F9F1F0895FC016150A4
:104D6000704001900110D8F7809590958E0F9F1F8D
:104D700008950F931F93CF93DF938C01EB018B81E9
:104D800081FF1BC082FF0DC02E813F818C819D81E0
:104D90002817390764F4E881F9810193F983E883DE
:104DA00006C0E885F985802F0995892B31F48E811D
:104DB0009F8101969F838E8302C00FEF1FEFC80172
:104DC000DF91CF911F910F910895AEE0B0E0EBEE2F
:104DD000F6E20C942D250D891E8986E08C831A83BA
:104DE00009838FEF9FE79E838D839E01275E3F4F50
:104DF000CE0101966F89788DA9010E94CF1B2F816A
:104E00003885020F131FF80110822E96E4E00C94EF
:104E10004925FA01AA27283051F1203181F1E8947F
:104E20006F936E7F6E5F7F4F8F4F9F4FAF4FB1E09D
:104E30003ED0B4E03CD0670F781F891F9A1FA11D98
:104E4000680F791F8A1F911DA11D6A0F711D811D99
:104E5000911DA11D20D009F468943F912AE0269F5E
:104E600011243019305D3193DEF6CF010895462FBD
:104E70004770405D4193B3E00FD0C9F7F6CF462F9E
:104E80004F70405D4A3318F0495D31FD4052419307
:104E900002D0A9F7EACFB4E0A695979587957795C4
:104EA0006795BA95C9F700976105710508959B014B
:104EB000AC010A2E06945795479537952795BA95D4
:104EC000C9F7620F731F841F951FA01D0895629F6D
:104ED000D001739FF001829FE00DF11D649FE00DF2
:104EE000F11D929FF00D839FF00D749FF00D659F53
:104EF000F00D9927729FB00DE11DF91F639FB00D52
:104F0000E11DF91FBD01CF011124089597FB092E62
:104F100005260ED057FD04D014D00AD0001C38F45A
:104F200050954095309521953F4F4F4F5F4F0895D5
:104F3000F6F790958095709561957F4F8F4F9F4FB5
:104F40000895A1E21A2EAA1BBB1BFD010DC0AA1FCA
:104F5000BB1FEE1FFF1FA217B307E407F50720F0E2
:104F6000A21BB30BE40BF50B661F771F881F991F5D
:104F70001A9469F760957095809590959B01AC01A6
:0A4F8000BD01CF010895F894FFCFA2
:104F8A005B44454255472040202530362E32660084
:104F9A005D20416C69656E204B696C6C6564005DCF
:104FAA0020506C61796572206B696C6C6564206253
:104FBA007920616C69656E005D20517565656E20AA
:104FCA004B696C6C6564005D20506C617965722078
:104FDA006B696C6C656420627920717565656E0019
:104FEA00416C69656E20416476616E6365004D614E
:104FFA00726B20506172736F6E73004E38353930A0
:10500A00343630005072657373206120627574748F
:10501A006F6E00746F20636F6E74696E75652E2EE5
:10502A002E00436F6E6E6563746564205669610075
:10503A00555342005D2057656C636F6D6520746F30
:10504A0020416C69656E20416476616E6365005D1E
:10505A00204D6F76656D656E74202D20572C412C7E
:10506A00532C44005D20466972656D697373696CDF
:10507A0065202D204500330032003100506C6179E3
:10508A0020616761696E3F004C3A00253164005423
:10509A003A0025303264003A00533A005D205468E1
:1050AA0065207370616365736869707320637572D4
:1050BA0072656E7420706F736974696F6E202878D8
:1050CA002C7929206973202564202564005D2054E9
:1050DA0068652073706163657368697020697320FD
:1050EA00666163696E67207570005D20546865208B
:1050FA0073706163657368697020697320666163A0
:10510A00696E6720646F776E005D2054686520734E
:10511A007061636573686970206973206661636989
:10512A006E6720746F20746865206C656674005D14
:10513A0020546865207370616365736869702069BB
:10514A007320666163696E6720746F2074686520D6
:10515A007269676874000300010001000B00010016
:10516A00030010387E3810000080000000000000A4
:10517A00457E5A5B990000C0C000000000003F60F5
:10518A00C0C0603F00F806030306FC00C0C0000070
:0E519A0000000000E10000000008010000001D
:040000050080031E56
:00000001FF
